:100000000C9434000C943E000C943E000C943E0082
:100010000C943E000C943E000C943E000C943E0068
:100020000C943E000C943E000C943E000C943E0058
:100030000C943E000C943E000C943E000C943E0048
:100040000C943E000C943E000C943E000C943E0038
:100050000C943E000C943E000C943E000C943E0028
:100060000C943E000C943E0011241FBECFEFD8E04C
:10007000DEBFCDBF0E9442000C946A000C940000C9
:10008000000008958FEF84B921E00CC0822F809585
:1000900085B980E090E0000001963EE4803293074D
:1000A000D1F7220F27FFF2CF40E820E030E0842F85
:1000B000809585B980E090E0000001965EE4803292
:1000C0009507D1F746952F5F3F4F2730310579F7D8
:0800D00021E0DCCFF894FFCF22
:00000001FF
