:100000000C946C000C9476000C9476000C947600A2
:100010000C9476000C9476000C9476000C94760088
:100020000C9476000C9476000C9476000C94760078
:100030000C9476000C9476000C9476000C94760068
:100040000C9476000C9476000C9476000C94760058
:100050000C9476000C9476000C9476000C94760048
:100060000C9476000C947600415652204C43442068
:1000700044454D4F004C6F6164696E672E2E2E0013
:10008000204C434420616E696D6174696F6E00009D
:1000900010080402010000001F000000001F000003
:1000A0001F101010101F00001F181818181F000034
:1000B0001F1C1C1C1C1F00001F1E1E1E1E1F0000DC
:1000C0001F1F1F1F1F1F0003070F1F0F070300180D
:1000D0001C1E1F1E1C18000011241FBECFEFD8E0ED
:1000E000DEBFCDBF0E943F010C9419030C940000A9
:1000F00020E040E45CE9CA010197F1F72F5F243664
:10010000D1F708951F93CF93DF930E94B0018FE83A
:1001100090E060E00E94F30180E890E060E040E061
:100120000E94DC0110E0C0E4DCE988E061E00E94AC
:10013000CD0180E00E94680120E0CE010197F1F737
:100140002F5F2436D1F788E061E00E94CD018DE277
:100150000E94680120E0CE010197F1F72F5F24365D
:10016000D1F788E061E00E94CD018FE20E94680132
:1001700020E0CE010197F1F72F5F2436D1F788E018
:1001800061E00E94CD018CE70E94680120E0CE0171
:100190000197F1F72F5F2436D1F788E061E00E94E4
:1001A000CD0188E00E94680120E0CE010197F1F7BF
:1001B0002F5F2436D1F788E061E00E94CD018DE207
:1001C0000E94680120E0CE010197F1F72F5F2436ED
:1001D000D1F788E061E00E94CD018FE20E946801C2
:1001E00020E0CE010197F1F72F5F2436D1F788E0A8
:1001F00061E00E94CD018CE70E94680120E0CE0101
:100200000197F1F72F5F2436D1F71F5F133009F004
:100210008CCFDF91CF911F9108951F93CF93DF93E0
:100220000E94B00188E690E063E040E00E94DC01BB
:1002300020E040E45CE9CA010197F1F72F5F243622
:10024000D1F70E94B00185E790E063E040E00E94B2
:10025000DC0110E0C0E4DCE9CE010197F1F780E0B9
:1002600061E00E94CD01812F6FEF40E10E94B20258
:100270001F5F1F3F89F7DF91CF911F910895CF93A3
:10028000DF930E9417020E94B001C0E4DCE90E94E3
:100290000D0120E0CE010197F1F72F5F2436D1F751
:1002A0000E948200F4CF87FF02C0289A01C02898DC
:1002B00086FF02C05E9A01C05E9885FF02C0429A26
:1002C00001C0429884FF02C05C9A08955C9808952A
:1002D000FF920F931F93F82E807F0E9453012D9A57
:1002E0005A9A00EA1FE0C8010197F1F75A982D9831
:1002F000C8010197F1F78F2D8295807F0E945301ED
:100300002D9A5A9AC8010197F1F75A982D98C80169
:100310000197F1F71F910F91FF900895FF920F93AE
:100320001F93F82E807F0E9453015A9A00EA1FE023
:10033000C8010197F1F75A98C8010197F1F78F2D7D
:100340008295807F0E9453015A9AC8010197F1F764
:100350005A98C8010197F1F71F910F91FF900895E6
:1003600081E00E948E01089582E00E948E0108952E
:100370000F931F93CF93DF93062F009749F0EC0163
:1003800010E004C089910E9468011F5F1017D0F32C
:10039000DF91CF911F910F910895623031F063305A
:1003A00031F0613029F4805C03C08C5E01C08C5A4E
:1003B00080680E948E0108951F93CF93DF93EC0114
:1003C000862F642F0E94CD0110E003C00E946801B7
:1003D0001F5FFE01E10FF11D84918823B9F7DF91C2
:1003E000CF911F910895EF92FF920F931F93CF9398
:1003F000DF937C01162F110F110F110F1064C0E055
:10040000D0E0F701EC0FFD1F0491812F8C0F0E94AB
:100410008E01802F0E9468012196C830D10589F78E
:10042000DF91CF911F910F91FF90EF9008950F935F
:100430001F93CF93DF9380E69AEE0197F1F780E068
:100440000E9453012D9859985A98549A3A9A569A5C
:10045000209A259A519A529A80E30E9453015A9AFF
:1004600000EA1FE0C8010197F1F75A98C801019707
:10047000F1F780E30E9453015A9AC8010197F1F7FE
:100480005A98C8010197F1F780E20E9453015A9AE5
:10049000C8010197F1F75A98C8010197F1F788E26E
:1004A0000E948E018CE00E948E01C7E9D0E060E0DE
:1004B000162F1F5FCE010E94F3012896612F18307E
:1004C000B9F7DF91CF911F910F9108950F931F936B
:1004D000082F10E004C08EE10E948E011F5F1017EC
:1004E000D0F31F910F9108950F931F93082F10E0E1
:1004F00004C088E10E948E011F5F1017D0F31F9186
:100500000F9108958EE00E948E0108958FE00E9461
:100510008E0108958CE00E948E01089588E00E946B
:100520008E0108958CE00E948E0108950F931F9311
:10053000082F10E004C080E10E948E011F5F101799
:10054000D0F31F910F9108950F931F93082F10E080
:1005500004C084E10E948E011F5F1017D0F31F9129
:100560000F910895DF92EF92FF920F931F93CF9315
:10057000DF93D42E96E0899FC0011124242F30E010
:10058000AC01429FC001439F900D529F900D1124DA
:1005900070E00E940603EB01CB0166E070E00E9470
:1005A000F202E82EFF2400E010E012C0C801059618
:1005B000C817D90710F085E006C0C017D10710F0A2
:1005C0008E2D01C080E00E946801F3940A5F1F4FE6
:1005D000FD1460F3DF91CF911F910F91FF90EF9089
:1005E000DF900895AA1BBB1B51E107C0AA1FBB1FC8
:1005F000A617B70710F0A61BB70B881F991F5A95AF
:10060000A9F780959095BC01CD01089597FB092E1F
:1006100007260AD077FD04D0E5DF06D000201AF4C3
:10062000709561957F4F0895F6F7909581959F4F4E
:060630000895F894FFCFCD
:00000001FF
